:1000000062C0000087C0000085C0000083C00000FF
:1000100081C000007FC000007DC000006FC60000EE
:1000200079C0000077C0000075C0000073C00000F8
:1000300071C000006FC000006DC000006BC0000008
:10004000C3C6000067C0000092C20000C2C2000028
:1000500061C000005FC000005DC000005BC0000028
:1000600059C0000057C00000020000000800020153
:10007000000003040700000000000000000102046B
:10008000081020408001020408102001020408101A
:100090002004040404040404040202020202020311
:1000A00003030303030000000023002600290000CF
:1000B000000000250028002B00000000002400277D
:1000C000002A0000170311241FBECFEFD8E0DEBFC7
:1000D000CDBF11E0A0E0B1E0EEE2F4E102C0059096
:1000E0000D92A633B107D9F721E0A6E3B1E001C034
:1000F0001D92AB3FB207E1F710E0C6ECD0E004C0C0
:100100002297FE010E94DB08C43CD107C9F752D6F2
:100110000C94150A75CFCF92DF92EF92FF920F9356
:100120001F93E82FF92F05C001501109210931094A
:1001300061F1908196239417B9F305C0015011091C
:100140002109310911F1908196239413F7CFC12C25
:10015000D12CE12CF12C0AC08FEFC81AD80AE80A7A
:10016000F80A0C151D052E053F0579F080818623C0
:10017000841791F36C2D7D2D8E2D9F2D1F910F9146
:10018000FF90EF90DF90CF90089560E070E080E006
:1001900090E01F910F91FF90EF90DF90CF90089526
:1001A00026E040E855E260E070E080E491E07FD135
:1001B00061E086E01CD760E087E019D761E08DE060
:1001C00016C70F931F9360E086E04AD782E090E065
:1001D0009FD661E086E044D78AE090E099D660E05F
:1001E00086E03ED720E432E44FE050E061E087E073
:1001F0006CD760933A0170933B0180933C019093DC
:100200003D010E9489092DEC3CEC48E652E4E6D71A
:100210000E9456096093360170933701809338012C
:10022000909339010091000110910101222717FDDF
:100230002095322F60177107820793076CF40091A5
:100240003E0110913F01222717FD2095322F0617FE
:1002500017072807390734F063E071E080E491E084
:1002600072D23EC066E071E080E491E061D24091DC
:1002700036015091370160913801709139012AE0BF
:1002800030E080E491E0BCD261E171E080E491E093
:100290005AD261E08DE0E4D620E030E0A90168EBBD
:1002A00071E088E0F4D2209136013091370140911D
:1002B000380150913901AAE0B0E071D7F2D560E081
:1002C0008DE0CED688E007D52091360130913701F8
:1002D0004091380150913901AAE0B0E060D7E1D5F2
:1002E00062E370E080E090E01F910F91DAC5FC01BD
:1002F000818D228D90E0805C9F4F821B91098F73CE
:1003000099270895FC01918D828D981731F0828D87
:10031000E80FF11D858D90E008958FEF9FEF089510
:10032000FC01918D828D981761F0828DDF01A80FFD
:10033000B11D5D968C91928D9F5F9F73928F90E01F
:1003400008958FEF9FEF08958EE093E0892B41F0A1
:1003500080E090E0892B21F061D181110C940000A4
:100360000895FC01848DDF01A80FB11DA35ABF4F72
:100370002C91848D90E001968F739927848FA689A4
:10038000B7892C93A089B1898C9180648C93938DCB
:10039000848D981306C00288F389E02D80818F7DBB
:1003A00080830895CF93DF93EC01888D8823C1F07B
:1003B000EA89FB89808185FD05C0A889B9898C916E
:1003C00086FD0EC00FB607FCF5CF808185FFF2CF0A
:1003D000A889B9898C9185FFEDCFCE01C2DFE8CF26
:1003E000DF91CF910895CF92DF92FF920F931F93E9
:1003F000CF93DF931F92CDB7DEB76C0181E0D601BA
:1004000058968C9358975B969C915B975C968C91D1
:100410005C97981307C05096ED91FC91519780819D
:1004200085FD2DC0F601038D10E00F5F1F4F0F7388
:100430001127F02EF601848DF81210C00FB607FCBC
:10044000F9CFD6015096ED91FC915197808185FFAF
:10045000F1CFC601698385DF6981ECCF838DE80F19
:10046000F11DE35AFF4F6083D6015B960C935B97B7
:100470005296ED91FC915397808180620CC0D60119
:100480005696ED91FC91579760835096ED91FC91B3
:10049000519780818064808381E090E00F90DF91AC
:1004A000CF911F910F91FF90DF90CF900895BF9251
:1004B000CF92DF92EF92FF92CF93DF93EC016A012C
:1004C0007B01B22EE889F98982E08083411581EEB3
:1004D00058076105710599F060E079E08DE390E0DF
:1004E000A70196011ED6215031094109510956959F
:1004F000479537952795211580E1380790F0E889D1
:10050000F989108260E874E88EE190E0A701960115
:1005100008D621503109410951095695479537951B
:100520002795EC85FD853083EE85FF852083188E29
:10053000EC89FD89B082EA89FB89808180618083B2
:10054000EA89FB89808188608083EA89FB898081D0
:1005500080688083EA89FB8980818F7D8083DF9139
:10056000CF91FF90EF90DF90CF90BF9008951F92B2
:100570000F920FB60F9211242F938F939F93EF93A7
:10058000FF93E0915001F09151018081E09156017B
:10059000F091570182FD12C09081809159018F5FC7
:1005A0008F7320915A01821751F0E0915901F0E0C8
:1005B000E05CFE4F958F8093590101C08081FF91CF
:1005C000EF919F918F912F910F900FBE0F901F90E1
:1005D00018951F920F920FB60F9211242F933F93ED
:1005E0004F935F936F937F938F939F93AF93BF933B
:1005F000EF93FF9380E491E0B4DEFF91EF91BF9120
:10060000AF919F918F917F916F915F914F913F91AA
:100610002F910F900FBE0F901F90189580E491E0DE
:1006200066DE21E0892B09F420E0822F08951092E4
:1006300043011092420188EE93E0A0E0B0E0809385
:10064000440190934501A0934601B093470189E18D
:1006500091E0909341018093400185EC90E090936C
:100660004D0180934C0184EC90E090934F01809376
:100670004E0180EC90E0909351018093500181EC09
:1006800090E0909353018093520182EC90E090931C
:1006900055018093540186EC90E09093570180932C
:1006A00056011092590110925A0110925B0110925A
:1006B0005C010895CF92DF92EF92FF920F931F9308
:1006C000CF93DF937C016A01EB0100E010E00C1591
:1006D0001D0571F06991D701ED91FC910190F081B8
:1006E000E02DC7010995892B19F00F5F1F4FEFCF40
:1006F000C801DF91CF911F910F91FF90EF90DF9094
:10070000CF9008956115710581F0DB010D900020F7
:10071000E9F7AD0141505109461B570BDC01ED9142
:10072000FC910280F381E02D099480E090E008952F
:10073000E9CFDC01ED91FC910190F081E02D09946D
:1007400065E271E0DFCF0F931F93CF93DF93EC014E
:10075000D9DF8C01CE01F4DF800F911FDF91CF91A3
:100760001F910F9108958F929F92AF92BF92DF9247
:10077000EF92FF920F931F93CF93DF93CDB7DEB726
:10078000A1970FB6F894DEBF0FBECDBF7C01F42F4A
:10079000D52ECB0119A2223008F42AE08E010F5D7C
:1007A0001F4F822E912CA12CB12C6F2F7D2DA501D6
:1007B0009401B7D4F22FD32ECA01015011096A3027
:1007C00014F4E0E301C0E7E3E60FD801EC93232B38
:1007D000242B252B51F7B801C70194DFA1960FB642
:1007E000F894DEBF0FBECDBFDF91CF911F910F9167
:1007F000FF90EF90DF90BF90AF909F908F90089503
:10080000CF92DF92EF92FF920F931F93CF93DF93DC
:10081000EC016A017B012115310579F4E881F98148
:100820000190F081E02D642FDF91CF911F910F9106
:10083000FF90EF90DF90CF9009942A303105D9F4E2
:1008400077FF18C06DE275DF8C0144275527BA0188
:100850004C195D096E097F092AE0CE0184DF800F03
:10086000911FDF91CF911F910F91FF90EF90DF903B
:10087000CF9008952AE0B701A601CE01DF91CF9174
:100880001F910F91FF90EF90DF90CF906CCF3F9230
:100890004F925F926F927F928F929F92AF92BF9290
:1008A000CF92DF92EF92FF920F931F93CF93DF933C
:1008B00000D000D0CDB7DEB78B0129013A0190916D
:1008C0000201981721F09F3F09F0CFC104C0E8E66C
:1008D000F0E0349081C080930201E8E6F0E0E4911A
:1008E000EF3F09F4C2C1E13031F1E23009F44BC00D
:1008F000E11171C014BC15BC94B5926094BD95B55E
:10090000916095BD282F30E0F901EF56FF4FE4913B
:10091000F0E0EE0FFF1FE155FF4F459154915093CA
:10092000ED014093EC01F901E358FF4F249120932E
:10093000EB01312C53C010928000109281009091F5
:1009400081009860909381009091810091609093D4
:100950008100282F30E0F901EF56FF4FE491F0E0DD
:10096000EE0FFF1FE155FF4F459154915093E60163
:100970004093E501F901E358FF4F24912093E401EE
:10098000332433942BC01092B0001092B100909198
:10099000B00092609093B0009091B10091609093FC
:1009A000B100282F30E0F901EF56FF4FE491F0E05D
:1009B000EE0FFF1FE155FF4F459154915093DF011A
:1009C0004093DE01F901E358FF4F24912093DD01AC
:1009D00052E0352E03C03E2E37FC47C161E007D3FD
:1009E0004801A12CB12C832D8D7F09F0C1C060E09E
:1009F00072E18AE790E0A5019401B5D329833A8397
:100A00004B835C8369017A0181E0C81AD108E1084F
:100A1000F1089FEFC916D104E104F10409F008F4CC
:100A200095C060E472E48FE090E0A50194019BD34F
:100A300069017A01E1E0CE1AD108E108F108F2E09B
:100A40003F1218C08FEFC816D104E104F10409F079
:100A500008F486C060E970ED83E090E0A5019401A0
:100A600082D369017A0191E0C91AD108E108F1083D
:100A700083E001C082E0EFEFCE16D104E104F1047F
:100A800009F008F464C068E478EE81E090E0A50124
:100A9000940169D369017A01F1E0CF1AD108E10824
:100AA000F1083320D9F082E038121AC09FEFC9163E
:100AB000D104E104F10409F008F4D5C064E274EF54
:100AC00080E090E0A50194014ED369017A01E1E054
:100AD000CE1AD108E108F10885E003C083E001C027
:100AE00084E0FFEFCF16D104E104F10481F178F145
:100AF00062E17AE780E090E0A501940134D36901D6
:100B00007A0181E0C81AD108E108F108311002C069
:100B100084E001C086E09FEFC916D104E104F1042E
:100B2000B1F0A8F0C980DA80EB80FC809AE0F594FF
:100B3000E794D794C7949A95D1F7E1E0CE1AD108FB
:100B4000E108F108332031F087E00BC081E0332069
:100B500011F007C085E095B5987F982B95BD36C0FC
:100B600082E09091B100987F982B9093B1002EC0B5
:100B700060E072E18AE790E0A5019401F4D2690196
:100B80007A01F1E0CF1AD108E108F108C114D104CB
:100B900081E0E806F10480F068E478EE81E090E01E
:100BA000A5019401E0D269017A0191E0C91AD10846
:100BB000E108F10893E001C091E0E1E03E1206C0D7
:100BC00080918100887F892B80938100411451049A
:100BD0006104710461F0D801AA0FBB1FA301920147
:100BE000DED228EE33E040E050E09BD203C02FEF8E
:100BF0003FEFA901F1E03F16A1F082E0381619F1AC
:100C0000311033C0C7BC2093EE013093EF01409305
:100C1000F0015093F10180916E00826080936E002C
:100C200024C0D0928900C09288002093E7013093BD
:100C3000E8014093E9015093EA0180916F008260DE
:100C400080936F0012C0C092B3002093E0013093F4
:100C5000E1014093E2015093E301809170008260D2
:100C60008093700002C084E07CCF0F900F900F90B3
:100C70000F90DF91CF911F910F91FF90EF90DF9038
:100C8000CF90BF90AF909F908F907F906F905F902C
:100C90004F903F900895813039F018F0823051F034
:100CA000089510926E00089580916F008D7F80935B
:100CB0006F000895809170008D7F8093700081E0B7
:100CC0008093B0008091B100887F84608093B100F0
:100CD0001092B3000895CF93C82F809102018C1316
:100CE00007C0E8E6F0E084919FEF9093020101C015
:100CF0008FEFD1DF60E08C2FCF91B2C11F920F92A6
:100D00000FB60F9211242F933F934F935F936F93DE
:100D10007F938F939F93AF93BF93EF93FF938091B4
:100D2000E0019091E101A091E201B091E301892BF2
:100D30008A2B8B2B51F19091DD01E091DE01F09136
:100D4000DF018081892780838091E0019091E1011A
:100D5000A091E201B091E301181619061A061B06CC
:100D6000BCF48091E0019091E101A091E201B09189
:100D7000E3010197A109B1098093E0019093E1019A
:100D8000A093E201B093E30103C080910201A3DFCD
:100D9000FF91EF91BF91AF919F918F917F916F9153
:100DA0005F914F913F912F910F900FBE0F901F9029
:100DB00018950895B8D0FDDFF3D9C4EAD1E001DA7F
:100DC0002097E9F3C1DAFBCF1F920F920FB60F9273
:100DD00011242F933F938F939F93AF93BF93809151
:100DE000F3019091F401A091F501B091F6013091D9
:100DF000F20123E0230F2D3720F40196A11DB11D30
:100E000005C026E8230F0296A11DB11D2093F20113
:100E10008093F3019093F401A093F501B093F60150
:100E20008091F7019091F801A091F901B091FA0138
:100E30000196A11DB11D8093F7019093F801A09335
:100E4000F901B093FA01BF91AF919F918F913F91BA
:100E50002F910F900FBE0F901F9018953FB7F894E9
:100E60008091F7019091F801A091F901B091FA01F8
:100E700026B5A89B05C02F3F19F00196A11DB11DF5
:100E80003FBF6627782F892F9A2F620F711D811D12
:100E9000911D42E0660F771F881F991F4A95D1F771
:100EA00008958F929F92AF92BF92CF92DF92EF926E
:100EB000FF926B017C01D2DF4B015C01C114D104B4
:100EC000E104F104E1F02CD1C9DF681979098A093C
:100ED0009B09683E73408105910580F321E0C21AA9
:100EE000D108E108F10888EE880E83E0981EA11C65
:100EF000B11CC114D104E104F10431F7DFCFFF903C
:100F0000EF90DF90CF90BF90AF909F908F9008951B
:100F10008230910538F0880F991F880F991F059727
:100F20000197F1F70895789484B5826084BD84B503
:100F3000816084BD85B5826085BD85B5816085BDD4
:100F4000EEE6F0E0808181608083E1E8F0E01082ED
:100F5000808182608083808181608083E0E8F0E02E
:100F6000808181608083E1EBF0E080818460808318
:100F7000E0EBF0E0808181608083EAE7F0E080814F
:100F800084608083808182608083808181608083AF
:100F90008081806880831092C1000895833081F041
:100FA00028F4813099F08230A1F008958730A9F0BB
:100FB0008830B9F08430D1F4809180008F7D03C0F7
:100FC000809180008F7780938000089584B58F771B
:100FD00002C084B58F7D84BD08958091B0008F7765
:100FE00003C08091B0008F7D8093B0000895CF93AF
:100FF000DF9390E0FC01E358FF4F2491FC01EF5692
:10100000FF4F8491882349F190E0880F991FFC01DC
:10101000E754FF4FA591B49181559F4FFC01C591B5
:10102000D4919FB7611108C0F8948C9120958223C8
:101030008C93888182230AC0623051F4F8948C9199
:10104000322F309583238C938881822B888304C030
:10105000F8948C91822B8C939FBFDF91CF91089550
:101060000F931F93CF93DF931F92CDB7DEB7282F37
:1010700030E0F901E759FF4F8491F901E358FF4F40
:101080001491F901EF56FF4F04910023C1F088231A
:1010900019F0698383DF6981E02FF0E0EE0FFF1F15
:1010A000E155FF4FA591B4919FB7F8948C916111D0
:1010B00003C01095812301C0812B8C939FBF0F909B
:1010C000DF91CF911F910F9108950F931F93762F6A
:1010D00090E0FC01E358FF4F6491FC01EF56FF4F95
:1010E000E4917111762FF0E0EE0FFF1FEB55FF4FEB
:1010F0008591949189019A013F70472F0CD8611511
:1011000071058105910531F06F5F7F4F8F4F9F4FC4
:101110009F7003C060E070E0CB011F910F910895B4
:101120000895A1E21A2EAA1BBB1BFD010DC0AA1F28
:10113000BB1FEE1FFF1FA217B307E407F50720F040
:10114000A21BB30BE40BF50B661F771F881F991FBB
:101150001A9469F760957095809590959B01AC0104
:10116000BD01CF010895052E97FB16F400940FD012
:1011700057FD05D0D6DF07FC02D046F408C05095D5
:101180004095309521953F4F4F4F5F4F0895909573
:101190008095709561957F4F8F4F9F4F08950FD029
:1011A000A59F900DB49F900DA49F800D911D1124BB
:1011B0000895EE0FFF1F0590F491E02D0994A29F72
:1011C000B001B39FC001A39F700D811D1124911D1B
:1011D000B29F700D811D1124911D08950CD0EBC09C
:1011E000E3D040F0DAD030F021F45F3F19F0CCC00A
:1011F000511115C1CFC0F0D098F39923C9F35523ED
:10120000B1F3951B550BBB27AA27621773078407F9
:1012100038F09F5F5F4F220F331F441FAA1FA9F3AF
:1012200033D00E2E3AF0E0E830D091505040E695A1
:10123000001CCAF729D0FE2F27D0660F771F881F02
:10124000BB1F261737074807AB07B0E809F0BB0BF1
:10125000802DBF01FF2793585F4F2AF09E3F510515
:1012600068F092C0DCC05F3FECF3983EDCF38695FB
:1012700077956795B795F7959F5FC9F7880F911D8B
:101280009695879597F90895E1E0660F771F881F77
:10129000BB1F621773078407BA0720F0621B730B2A
:1012A000840BBA0BEE1F88F7E095089504D068947C
:1012B000B111B5C0089598D088F09F5790F0B92F1C
:1012C0009927B751A0F0D1F0660F771F881F991F9B
:1012D0001AF0BA95C9F712C0B13081F09FD0B1E0D1
:1012E00008959CC0672F782F8827B85F39F0B93FE1
:1012F000CCF3869577956795B395D9F73EF490959D
:101300008095709561957F4F8F4F9F4F0895E8941A
:1013100009C097FB3EF490958095709561957F4F3D
:101320008F4F9F4F9923A9F0F92F96E9BB279395EB
:10133000F695879577956795B795F111F8CFFAF4FB
:10134000BB0F11F460FF1BC06F5F7F4F8F4F9F4F2C
:1013500016C0882311F096E911C0772321F09EE88A
:10136000872F762F05C0662371F096E8862F70E0F0
:1013700060E02AF09A95660F771F881FDAF7880FCA
:101380009695879597F9089597F99F6780E870E09B
:1013900060E008959FEF80EC089500240A941616EB
:1013A000170618060906089500240A941216130653
:1013B000140605060895092E0394000C11F48823E1
:1013C00052F0BB0F40F4BF2B11F460FF04C06F5FFD
:1013D0007F4F8F4F9F4F089557FD9058440F551FD3
:1013E00059F05F3F71F04795880F97FB991F61F0A7
:1013F0009F3F79F087950895121613061406551F1E
:10140000F2CF4695F1DF08C0161617061806991F89
:10141000F1CF86957105610508940895E894BB277E
:0E14200066277727CB0197F90895F894FFCF40
:10142E009001FF2D3100557A616B6CC4B16B3A207F
:10143E000020636D0000000000F3015A0377019055
:10144E00018201D2010D0A006E616E00696E6600A6
:06145E006F7666002E000F
:00000001FF
