:1000000000308A0004280000840183131F30830518
:1000100083161F149F141F159F11FF308312A10018
:1000200083161F149F141F159F1183121F10831610
:10003000091283129412A1122108831687008312D9
:1000400021162108831687008312A1112108831627
:100050008700013083129400003083169400010859
:10006000C73908388100831290010030F8009200EF
:1000700000308316920086000130850083128601CD
:10008000831605148312A0010518A00AA008031DF9
:0C0090004B2806104C2806144028630082
:02400E00393F38
:00000001FF
;PIC16F877
