:1000000000308A0019280000223084008313000881
:10001000031918280130F800F701F70B0D28F80B29
:100020000C284A30F700F70B13281628800B0A28F3
:100030000034840183131F30830583161F149F141B
:100040001F159F11FF308312A00083161F149F14E9
:100050001F159F1183121F10831609128312941209
:10006000A01220088316870083122016200883160A
:1000700087008312A01120088316870001308312A5
:1000800094000030831694000108C73908388100B5
:10009000831290010030F800920000308316920025
:1000A0008600831286010230A100FA30A2000420EB
:1000B000A10B5528013086060230A100FA30A200BB
:1000C0000420A10B5E2802308606A100FA30A200AF
:1000D0000420A10B6628043086060230A100FA3005
:1000E000A2000420A10B6F28083086060230A10070
:1000F000FA30A2000420A10B7828103086060230C6
:10010000A100FA30A2000420A10B8128203086062D
:100110000230A100FA30A2000420A10B8A2840304E
:1001200086060230A100FA30A2000420A10B932819
:080130008030860653286300AD
:02400E00393F38
:00000001FF
;PIC16F877
